:100000000C9463000C948B000C948B000C94810571
:100010000C9481050C9481050C948B000C948B003E
:100020000C948B000C948B000C948B000C948B0024
:100030000C948B000C948B000C948B000C948B0014
:100040000C9437050C948B000C9405050C94DF047C
:100050000C948B000C948B000C948B000C948B00F4
:100060000C948B000C948B0000000008000201002F
:100070000003040700000000000000000000000072
:1000800023002600290000000000240027002A0089
:1000900000000000250028002B00040404040404D0
:1000A0000404020202020202030303030303010227
:1000B00004081020408001020408102001020408F6
:1000C00010204506FD0A11241FBECFEFD8E0DEBF89
:1000D000CDBF24E0ACEBB3E001C01D92AE3FB20750
:1000E000E1F713E0A0E0B1E0EEE2F7E102C0059035
:1000F0000D92AC3BB107D9F710E0C2E6D0E004C0E6
:100100002197FE010E94690BC136D107C9F70E94F1
:1001100073070C948A0B0C940000DF92EF92FF920D
:100120000F931F93CF93DF93EC018091D9049091AB
:10013000DA046981DC01ED91FC910190F081E02D00
:1001400009958091D9049091DA04DC01ED91FC913C
:100150000190F081E02D688109958091D9049091FA
:10016000DA04DC01ED91FC910190F081E02D6A81CF
:1001700009958091D9049091DA04DC01ED91FC910C
:100180000190F081E02D6B8109958091D9049091C7
:10019000DA04DC01ED91FC910190F081E02D6C819D
:1001A00009958091D9049091DA04DC01ED91FC91DC
:1001B0000190F081E02D6D8109958091D904909195
:1001C000DA04DC01ED91FC910190F081E02D6E816B
:1001D00009950F8118850E5F1F4F8091D90490916A
:1001E000DA04E12EFF24DC01ED91FC910190F08115
:1001F000E02D6E2D09958091D9049091DA04DC01EF
:10020000ED91FC910190F081E02D602F09950E0D8C
:100210001F2D111D8E81080F111DD12C8091D90425
:100220009091DA04DC01ED91FC910190F081E02DD8
:10023000ED2CF12C2F813885E216F30660F4EC0EDC
:10024000FD1ED70119966C910995F7018185080F5C
:10025000111DD394E3CF612F09958091D90490911A
:10026000DA04DC01ED91FC910190F081E02D602F2A
:10027000DF91CF911F910F91FF90EF90DF90099444
:10028000AF92BF92CF92DF92EF92FF920F931F93A4
:10029000CF93DF936C017B018B01040F151FEB01E2
:1002A0005E01AE18BF08C017D10759F06991D60199
:1002B000ED91FC910190F081E02DC6010995892B0B
:1002C00079F7C501DF91CF911F910F91FF90EF90CA
:1002D000DF90CF90BF90AF900895FC01538D448D77
:1002E000252F30E0842F90E0821B930B541710F0E1
:1002F000CF96089501970895FC01918D828D9817EE
:1003000061F0A28DAE0FBF2FB11D5D968C91928DC5
:100310009F5F9F73928F90E008958FEF9FEF0895F6
:10032000FC01918D828D981731F0828DE80FF11DBF
:10033000858D90E008958FEF9FEF08952FB7F89483
:100340008091060490910704A0910804B0910904DB
:100350002FBF8093120490931304A0931404B093BE
:1003600015048AE094E00E94900197FF26C02FB701
:10037000F8948091060490910704A0910804B0912C
:1003800009042FBF4091120450911304609114048A
:1003900070911504841B950BA60BB70B40910E04AE
:1003A00050910F0460911004709111048417950707
:1003B000A607B707B0F28FEF9FEF0895FC01918D6C
:1003C000228D892F90E0805C9F4F821B91098F7353
:1003D000992708958AE094E00E94DE0121E0892BAC
:1003E00009F420E0822F089580E090E0892B29F025
:1003F0000E94EA0181110C9400000895FC01A48D73
:10040000A80FB92FB11DA35ABF4F2C91848D90E036
:1004100001968F739927848FA689B7892C93A08919
:10042000B1898C91837080648C93938D848D9813A3
:1004300006C00288F389E02D80818F7D8083089536
:10044000EF92FF920F931F93CF93DF93EC0181E024
:10045000888F9B8D8C8D98131AC0E889F9898081CB
:1004600085FF15C09FB7F894EE89FF896083E889FE
:10047000F98980818370806480839FBF81E090E0F0
:10048000DF91CF911F910F91FF90EF900895F62E7D
:100490000B8D10E00F5F1F4F0F731127E02E8C8D17
:1004A0008E110CC00FB607FCFACFE889F98980815C
:1004B00085FFF5CFCE010E94FE01F1CFEB8DEC0F51
:1004C000FD2FF11DE35AFF4FF0829FB7F8940B8F79
:1004D000EA89FB8980818062CFCFCF93DF93EC01E3
:1004E000888D8823B9F0AA89BB89E889F9898C911C
:1004F00085FD03C0808186FD0DC00FB607FCF7CFD8
:100500008C9185FFF2CF808185FFEDCFCE010E94D7
:10051000FE01E9CFDF91CF9108953FB7F894809124
:10052000FD039091FE03A091FF03B091000426B556
:10053000A89B05C02F3F19F00196A11DB11D3FBF1B
:10054000BA2FA92F982F8827BC01CD01620F711DEA
:10055000811D911D42E0660F771F881F991F4A95E4
:10056000D1F708958F929F92AF92BF92CF92DF9270
:10057000EF92FF924B015C010E948D026B017C01A6
:100580000E948D026C197D098E099F09683E734097
:1005900081059105A8F321E0821A9108A108B1080C
:1005A00088EEC80E83E0D81EE11CF11C8114910472
:1005B000A104B10429F7FF90EF90DF90CF90BF9096
:1005C000AF909F908F900895EF92FF920F931F939B
:1005D000CF93DF93EC01F12CE12C10E000E080914F
:1005E000D9049091DA04DC01ED91FC910084F1854D
:1005F000E02D0995892BB1F461E070E080E090E096
:100600000E94B202BFEFEB1AFB0A88EEE81683E005
:10061000F80628F38FEFDF91CF911F910F91FF9094
:10062000EF9008958091D9049091DA04DC01ED9166
:10063000FC910284F385E02D09950930110580F5C0
:10064000F801EB5DFC4F0C94690B2E03360340035D
:10065000400340034003450347034A038F3E09F02C
:10066000BECF188289830F5F1F4FB9CF2881398190
:10067000282B3983288321303F4EA9F38EEFCBCF2F
:10068000FE01E00FF11F8083EECF8E83ECCF1F823F
:100690008887E9CF2F813885282B38872F83E3CFB0
:1006A000FE01E00FF11F80832F813885C801089774
:1006B00082179307C1F680E0AECF209103043091FA
:1006C00004042817390771F4909101048091020401
:1006D000981741F0E0910104F0E0E454FC4F808170
:1006E00090E008958FEF9FEF08950895EF92FF92A5
:1006F0000F931F93CF93DF93DC015C96ED90FC90FA
:100700005D97E114F10479F481E090E013969C93F5
:100710008E93129790E080E0DF91CF911F910F911F
:10072000FF90EF9008955196ED91FC91529750965D
:100730008C915097982F90950FB75E962C915E975D
:10074000122F127021FD6095F8942081112319F168
:10075000282B2083E7012197F1F728E0462F50E06E
:10076000308160FF1AC0382B3083E7012197F1F701
:10077000BA0175956795215089F7112381F0808121
:10078000892380830FBF5C968D919C910197F1F72F
:1007900081E090E0C1CF2923DCCF3923E5CF9081E0
:1007A000892BEFCF209103043091040428173907D7
:1007B00071F4809102042091010490E0805C9F4FCD
:1007C000821B910960E470E00E94330B089590E071
:1007D00080E008952091030430910404281739071C
:1007E000B9F49091010480910204981789F0E09186
:1007F0000104F0E0E454FC4F80812091010430E0DA
:100800002F5F3F4F2F7333272093010490E008950B
:100810008FEF9FEF089590E080E00895FC01019034
:100820000020E9F73197AF01481B590BBC018AE062
:1008300094E00C944001CF92DF92EF92FF920F93DD
:100840001F93CF93DF93CDB7DEB7A1970FB6F89480
:10085000DEBF0FBECDBF282F30E050E040E019A230
:100860008E010F5D1F4F8AE0C82ED12CE12CF12C98
:10087000CA01B901A70196010E94470B605DF8010A
:1008800062938F01211531054105510589F7309794
:10089000C9F0CF010E940E048C0184E291E00E9415
:1008A0000E04800F911FA1960FB6F894DEBF0FBE05
:1008B000CDBFDF91CF911F910F91FF90EF90DF900F
:1008C000CF90089510E000E0E8CFCF93DF930E942F
:1008D0000E04EC0184E291E00E940E048C0F9D1F37
:1008E000DF91CF910895CF93DF93CDB7DEB7C95491
:1008F000D1090FB6F894DEBF0FBECDBF21E03FEEA9
:100900003A83298391E09F8322E030E0398728876A
:100910009FEF9B839C839D839E8392E09A878B8726
:10092000CE0101960E948D00CE0101960E94E40244
:1009300081110EC08F81873059F48A85C75BDF4FE4
:100940000FB6F894DEBF0FBECDBFDF91CF910895F3
:1009500081E0F4CFCF93DF93CDB7DEB7C954D1098F
:100960000FB6F894DEBF0FBECDBF81E09FEE9A8335
:10097000898391E09F8321E030E0398728878FEFDA
:100980008B838C838D838E839A87CE0101960E9400
:100990008D00CE0101960E94E40281110EC08F816C
:1009A000873059F48A85C75BDF4F0FB6F894DEBFF6
:1009B0000FBECDBFDF91CF91089581E0F4CF1F929C
:1009C0000F920FB60F9211242F933F934F935F9383
:1009D0006F937F938F939F93AF93BF93EF93FF9307
:1009E0008AE094E00E94FE01FF91EF91BF91AF91E8
:1009F0009F918F917F916F915F914F913F912F9137
:100A00000F900FBE0F901F9018951F920F920FB668
:100A10000F9211242F938F939F93EF93FF93E09165
:100A20001A04F0911B048081E0912004F0912104CC
:100A300082FD1BC09081809123048F5F8F73209172
:100A40002404821741F0E0912304F0E0E65FFB4FBD
:100A5000958F80932304FF91EF919F918F912F9118
:100A60000F900FBE0F901F9018958081F4CF1F92AA
:100A70000F920FB60F9211242F933F938F939F9352
:100A8000AF93BF938091060490910704A09108044E
:100A9000B09109043091FC0323E0230F2D3758F562
:100AA0000196A11DB11D2093FC0380930604909331
:100AB0000704A0930804B09309048091FD0390916A
:100AC000FE03A091FF03B09100040196A11DB11D8A
:100AD0008093FD039093FE03A093FF03B093000463
:100AE000BF91AF919F918F913F912F910F900FBE2A
:100AF0000F901F90189526E8230F0296A11DB11D97
:100B0000D2CF1F920F920FB60F9211242F933F93C3
:100B10004F935F936F937F938F939F93AF93BF9305
:100B2000EF93FF93E0910304F0910404309749F0B0
:100B3000A685B7858585968D91FF14C09C918923E4
:100B4000A1F4FF91EF91BF91AF919F918F917F9110
:100B50006F915F914F913F912F910F900FBE0F902A
:100B60001F9018959C91892361F7A389B4899C9162
:100B70008589809589238C93868997890197F1F7D8
:100B8000608D718DA685B785558538E020E0CB0155
:100B90000197F1F7822F90E095958795282F4C913A
:100BA000452309F02068315091F7868D81FD20950D
:100BB0008091020490E001968F739927309101048F
:100BC000381799F0A0910204B0E0A454BC4F2C93C4
:100BD00080930204828D938D0197F1F7A389B489E4
:100BE0008C919589892B8C93ACCF868D8160868F73
:100BF000F1CF90E0FC01E859FF4F2491FC01E25550
:100C0000FF4F3491FC01E656FF4FE491EE23C9F00B
:100C1000222339F0233001F1A8F4213019F12230D8
:100C200029F1F0E0EE0FFF1FE057FF4FA591B491BF
:100C30008FB7F894EC91611126C030953E233C9318
:100C40008FBF08952730A9F02830C9F0243049F724
:100C5000809180008F7D03C0809180008F7780938A
:100C60008000DFCF84B58F7784BDDBCF84B58F7DE7
:100C7000FBCF8091B0008F778093B000D2CF80916E
:100C8000B0008F7DF9CF3E2BDACF0F931F93CF9318
:100C9000DF9310920D0410920C0488EE93E0A0E014
:100CA000B0E080930E0490930F04A0931004B093CF
:100CB000110424E031E030930B0420930A0425EC66
:100CC00030E0309317042093160424EC30E0309386
:100CD00019042093180420EC30E030931B04209377
:100CE0001A0421EC30E030931D0420931C0422EC04
:100CF00030E030931F0420931E0426EC30E0309344
:100D000021042093200410922304109224041092B2
:100D10002504109226041092E2041092E1048093BC
:100D2000E3049093E404A093E504B093E60486E121
:100D300091E09093E0048093DF041092F604109207
:100D4000F5041092F8041092F7041092FA0410922D
:100D5000F9041092FC041092FB046091FD046E7F74
:100D60006D7F6093FD046695617081E0682783E084
:100D70000E94F90541EB50E0FA0164918DE990E0A1
:100D8000FC012491222399F030E0220F331FF90156
:100D9000EA57FF4FA591B491F901E057FF4F259114
:100DA00034912FB7F8943C91632B6C932FBFFA01C9
:100DB00044914093EF04FC018491E82FF0E0EE0FA2
:100DC000FF1FE057FF4F859194919093F10480931A
:100DD000F00400EB10E0F8012491CCE9D0E0FE0132
:100DE00084918823C9F090E0880F991FFC01EA578D
:100DF000FF4FA591B491FC01E057FF4F45915491ED
:100E00003FB7F8949C91822F809598239C93FA0188
:100E10009081892380833FBF8091FD0481FD04C0C0
:100E200061E082E00E94F9058FED94E022E02093DA
:100E3000EB04F80104910093EC04FE01C491EC2F43
:100E4000F0E0EE0FFF1FE458FF4F259134913093EF
:100E5000EE042093ED041092AE041092AD041092B3
:100E6000B0041092AF0420E430E03093B204209339
:100E7000B1041092B4041092B3044FEF5FEFBA01C3
:100E80004093B5045093B6046093B7047093B804CC
:100E90003093BA042093B90420E031EE3093BC04BF
:100EA0002093BB041092BD041092BE041092BF04A4
:100EB0001092C0044093C1045093C2046093C304D1
:100EC0007093C4041092DE041092DD049093DC044D
:100ED0008093DB049093DA048093D904DF91CF915F
:100EE0001F910F910895CF93DF93CDB7DEB7C9540B
:100EF000D1090FB6F894DEBF0FBECDBF789484B58C
:100F0000826084BD84B5816084BD85B5826085BD05
:100F100085B5816085BD80916E00816080936E0093
:100F20001092810080918100826080938100809185
:100F30008100816080938100809180008160809336
:100F400080008091B10084608093B1008091B000F6
:100F500081608093B00080917A00846080937A00F1
:100F600080917A00826080937A0080917A0081601B
:100F700080937A0080917A00806880937A00109242
:100F8000C100E0911A04F0911B0402E00083E0919B
:100F90001604F09117041082E0911804F0911904DE
:100FA0008FEC808310922204E0911E04F0911F04C4
:100FB00016E01083E0911C04F0911D048081806193
:100FC0008083E0911C04F0911D04808188608083FF
:100FD000E0911C04F0911D04808180688083E09181
:100FE0001C04F0911D0480818F7D808364E670E095
:100FF00080E090E00E94B20287E291E00E946504E6
:101000008CE491E00E94650468EE73E080E090E07B
:101010000E94B202E091DD04F091DE04309731F1DC
:10102000A089B1890C93A089B1891C92A485B5854A
:101030001C92A685B78580E18C93108EA489B58912
:101040001C93A289B3898C9180618C93A289B38906
:101050008C9188608C93A289B3898C9180688C93E1
:101060000288F389E02D80818F7D8083E091DB040D
:10107000F091DC04309709F477C0138E128E118E34
:10108000108E178A168A82E490E0958F848F84856B
:10109000863108F03DC02FE030E0378B268B20E40E
:1010A00030E0318F208F27E230E0338F228F909114
:1010B0006800883008F48CC021E08E3008F420E00D
:1010C00081E001C0880F2A95EAF7892B8093680098
:1010D00094852DE630E0983050F02BE630E09E30DD
:1010E00030F02CE630E0963110F030E020E0348B28
:1010F000238B292F30E0983008F06CC081E001C0CC
:10110000880F9A95EAF7858B848D958D0197F1F775
:10111000828D938D892B41F14091030450910404F9
:10112000E417F50709F14115510569F0DA01539605
:101130002D913C91D9019C91DA0155968C91809525
:101140008923D9018C93868D8E7F868F109202041D
:1011500010920104F0930404E0930304A389B4897A
:101160008C919589892B8C938091BD049091BE04BC
:101170002091BF043091C004EE24E3945FEEF52E7D
:10118000FA82E98201E00F8345E050E05987488701
:101190001FEF1B831C831D831E8343E14A873B870C
:1011A0002C879D878E87CE0101960E948D00CE01EF
:1011B00001960E94E4028823D1F082E791E00E9428
:1011C000650461E070E080E090E00E94B202F9CF37
:1011D00084E07BCF9E3040F42850310981E001C08B
:1011E000880F2A95EAF78FCF2E503109F7CF8F81DC
:1011F000873019F78A858111E0CF85E991E00E9457
:101200000E04FA82E9820F8381E090E09987888753
:101210001B831C831D831E838FE08A87CE0101966A
:101220000E948D00CE0101960E94E40281115AC0F5
:101230008F81873009F056C08B859C859827892738
:1012400098279093AE048093AD048D859E85982752
:10125000892798279093B0048093AF048F8598894D
:101260009827892798279093B2048093B10489899D
:101270009A899827892798279093B4048093B30478
:101280006B897C898D899E890E946F0B6093B50460
:101290007093B6048093B7049093B8048F89988DA7
:1012A0009827892798279093BA048093B9040097C8
:1012B00009F0A0C080E290E09093BA048093B90452
:1012C000898D9A8D98278927982740E855E2849F31
:1012D0009001859F300D949F300D11243093BC04F4
:1012E0002093BB048824839420E0E22E20E0F22E99
:1012F00001E01FEECC24C394D12C44E0A42EB12CE9
:1013000099249A9495E0292E8FEA91E00E94650431
:101310008FEC91E00E9465048AE094E00E94DE0177
:10132000892BD1F30E949E01FC0197FD7DC08D3277
:10133000910521F0C0970A9708F06EC0412C512CFE
:101340003201312CE130F105D9F0ED32F10509F42B
:1013500068C0CF01C0970A9798F4AAE0B0E0A30153
:1013600092010E94190B2F01FF0F66087708460EA5
:10137000571E681E791EB0E34B1A510861087108A8
:101380008AE094E00E947C010E949E01FC01C097CB
:101390000A97C0F2E130F105A9F2332041F07094D0
:1013A000609450944094411C511C611C711C442059
:1013B00009F4B2CF4092050483E092E00E940E044B
:1013C000809105040E941B0486E0682E8EE192E065
:1013D0000E940E04809105040E941B040E94AA042E
:1013E0008130C9F128F18230C9F38330C9F18AE72D
:1013F00092E033C08130910519F480E490E05CCF35
:101400008230910519F480E890E056CF039709F0F7
:1014100057CF80E091E050CF8AE094E00E947C01B9
:1014200081CF33243394ACCF412C512C3201BFCF28
:1014300086E492E00E94650481E00E947304863095
:1014400091F008F0ABC08823F1F0813009F4B7C007
:101450008AE792E00AC088E592E00E946504BECF68
:101460008CE692E0FACF88E892E00E946504E114ED
:10147000F10409F449CF0E94EA01882309F440CF1E
:101480000E9400003DCF8CEB92E00E94650460ED6D
:1014900077E080E090E00E94B2020E94AA048230CD
:1014A000E1F78CEC92E00E940E04809105040E940A
:1014B0001B048CED92E00E9465040E94AA04813016
:1014C00009F474C040F08230C1F3833009F471C074
:1014D0008AE792E0F0CF86E492E00E94650482E021
:1014E0000E947304863009F4BECF08F057C0811102
:1014F000ACCF1A8309838F82D986C8869B829C824F
:101500009D829E822A86CE0101960E948D00CE0188
:1015100001960E94E402811104C08F817A84873091
:1015200011F077247394872D90E0009709F044C060
:1015300084EF92E00E94650488ED92E00E940E0420
:10154000809105040E941B04809105041A8309837D
:101550008F82B986A8869B829C829D829E826A86A3
:101560008B861C868D87CE0101960E948D00CE0150
:1015700001960E94E402811104C08F817A84873031
:1015800011F077247394872D90E0009701F584E2A1
:1015900093E00E94650480E593E067CF873019F0FF
:1015A000853109F055CF88E992E05FCF88E592E078
:1015B00082CF8CE692E07FCF8130910519F488E5E7
:1015C00092E053CF0A9789F489E093E04ECF8130BF
:1015D0009105A9F38B30910519F483E893E045CF89
:1015E000489719F484EA93E040CF8AE792E00E949A
:1015F0006504772009F4EACE3ACF86E191E0909332
:10160000E0048093DF0480910304909104048F5DD3
:10161000944071F4E091F204F091F3049081809190
:10162000F4048095892380831092040410920304AB
:1016300008950E94240BA59F900DB49F900DA49F28
:10164000800D911D11240895A29FB001B39FC00188
:10165000A39F700D811D1124911DB29F700D811DDE
:101660001124911D089597FB072E16F4009407D0BE
:1016700077FD09D00E94760B07FC05D03EF49095CB
:1016800081959F4F0895709561957F4F0895A1E2D0
:101690001A2EAA1BBB1BFD010DC0AA1FBB1FEE1FEC
:1016A000FF1FA217B307E407F50720F0A21BB30B37
:1016B000E40BF50B661F771F881F991F1A9469F7B3
:1016C00060957095809590959B01AC01BD01CF010F
:1016D0000895EE0FFF1F0590F491E02D09946927FE
:1016E000962769277827872778270895AA1BBB1B89
:1016F00051E107C0AA1FBB1FA617B70710F0A61B12
:10170000B70B881F991F5A95A9F780959095BC0132
:10171000CD01089510E0C2E6D0E004C0FE010E94B1
:0E172000690B2196C336D107C9F7F894FFCFA5
:10172E0000000000200240016D016D02DE017C010F
:10173E00900100000000760340010B047503D203F4
:10174E00EA035D030D0A0042696F6D657472696389
:10175E0020417474656E64656E636520537973748D
:10176E00656D2C4353452050535455005F5F5F5FAA
:10177E005F5F5F5F5F5F5F5F5F5F5F5F5F5F5F5F6B
:10178E005F5F5F5F5F5F5F5F5F5F5F5F5F5F5F5F5B
:10179E000A00446964206E6F742066696E64206668
:1017AE00696E6765727072696E742073656E736FA1
:1017BE0072203A2800466F756E642066696E676502
:1017CE00727072696E742073656E736F7221000A87
:1017DE00526561647920746F20656E726F6C6C2037
:1017EE00612066696E6765727072696E7421005051
:1017FE006C65617365207479706520696E207468FC
:10180E00652046696E6765727072696E7420494410
:10181E002023202866726F6D203120746F203132A4
:10182E00372900456E726F6C6C696E672046696E63
:10183E006765727072696E74204944202300576187
:10184E006974696E6720666F722076616C696420B8
:10185E0066696E67657220746F20656E726F6C6C50
:10186E0020617320230046696E6765727072696E1F
:10187E00742074616B656E00436F6D6D756E696378
:10188E006174696F6E206572726F7200496D616767
:10189E00696E67206572726F7200556E6B6E6F7730
:1018AE006E206572726F7200496D61676520746F8C
:1018BE006F206D6573737900436F756C64206E6F66
:1018CE00742066696E642066696E676572707269EF
:1018DE006E74206665617475726573000A52454DAB
:1018EE004F56452046494E4745520A0046696E6797
:1018FE0065727072696E742049442000506C616389
:10190E00652073616D652066696E6765722061671B
:10191E0061696E0046696E6765727072696E7420D9
:10192E006D617463686564210046696E67657270E7
:10193E0072696E747320646964206E6F74206D61B9
:10194E007463680046696E6765727072696E7420A2
:10195E00686173206265656E20656E726F6C6C6572
:10196E0064205375636365737366756C6C792100BF
:10197E002D2D2D2D2D2D2D2D2D2D2D2D2D2D2D2D89
:10198E002D2D2D2D2D2D2D2D2D2D2D2D2D2D2D2D79
:10199E002D2D2D2D2D2D2D2D2D2D2D2D2D2D2D2D69
:1019AE002D0A00436F756C64206E6F742073746F14
:1019BE00726520696E2074686174206C6F63617447
:1019CE00696F6E004572726F722077726974696EFC
:0C19DE006720746F20666C617368000065
:00000001FF
