:100000000C9463000C948B000C948B000C948B0468
:100010000C948B040C948B040C948B000C948B002C
:100020000C948B000C948B000C948B000C948B0024
:100030000C948B000C948B000C948B000C948B0014
:100040000C9441040C948B000C940F040C94E90361
:100050000C948B000C948B000C948B000C948B00F4
:100060000C948B000C948B0000000008000201002F
:100070000003040700000000000000000000000072
:1000800023002600290000000000240027002A0089
:1000900000000000250028002B00040404040404D0
:1000A0000404020202020202030303030303010227
:1000B00004081020408001020408102001020408F6
:1000C00010204F05D50811241FBECFEFD8E0DEBFAA
:1000D000CDBF11E0A0E0B1E0ECE9F2E102C0059093
:1000E0000D92A23DB107D9F723E0A2EDB1E001C026
:1000F0001D92A331B207E1F710E0C2E6D0E004C0E0
:100100002197FE010E942709C136D107C9F70E9435
:100110007D060C9441090C940000DF92EF92FF924F
:100120000F931F93CF93DF93EC018091EE02909198
:10013000EF026981DC01ED91FC910190F081E02DED
:1001400009958091EE029091EF02DC01ED91FC9116
:100150000190F081E02D688109958091EE029091E7
:10016000EF02DC01ED91FC910190F081E02D6A81BC
:1001700009958091EE029091EF02DC01ED91FC91E6
:100180000190F081E02D6B8109958091EE029091B4
:10019000EF02DC01ED91FC910190F081E02D6C818A
:1001A00009958091EE029091EF02DC01ED91FC91B6
:1001B0000190F081E02D6D8109958091EE02909182
:1001C000EF02DC01ED91FC910190F081E02D6E8158
:1001D00009950F8118850E5F1F4F8091EE02909157
:1001E000EF02E12EFF24DC01ED91FC910190F08102
:1001F000E02D6E2D09958091EE029091EF02DC01C9
:10020000ED91FC910190F081E02D602F09950E0D8C
:100210001F2D111D8E81080F111DD12C8091EE0212
:100220009091EF02DC01ED91FC910190F081E02DC5
:10023000ED2CF12C2F813885E216F30660F4EC0EDC
:10024000FD1ED70119966C910995F7018185080F5C
:10025000111DD394E3CF612F09958091EE02909107
:10026000EF02DC01ED91FC910190F081E02D602F17
:10027000DF91CF911F910F91FF90EF90DF90099444
:10028000AF92BF92CF92DF92EF92FF920F931F93A4
:10029000CF93DF936C017B018B01040F151FEB01E2
:1002A0005E01AE18BF08C017D10759F06991D60199
:1002B000ED91FC910190F081E02DC6010995892B0B
:1002C00079F7C501DF91CF911F910F91FF90EF90CA
:1002D000DF90CF90BF90AF900895FC01538D448D77
:1002E000252F30E0842F90E0821B930B541710F0E1
:1002F000CF96089501970895FC01918D828D9817EE
:1003000061F0A28DAE0FBF2FB11D5D968C91928DC5
:100310009F5F9F73928F90E008958FEF9FEF0895F6
:10032000FC01918D828D981731F0828DE80FF11DBF
:10033000858D90E008958FEF9FEF0895FC01918DDA
:10034000228D892F90E0805C9F4F821B91098F73D3
:10035000992708958FE192E00E949E0121E0892B68
:1003600009F420E0822F089580E090E0892B29F0A5
:100370000E94AA0181110C9400000895FC01A48D33
:10038000A80FB92FB11DA35ABF4F2C91848D90E0B7
:1003900001968F739927848FA689B7892C93A0899A
:1003A000B1898C91837080648C93938D848D981324
:1003B00006C00288F389E02D80818F7D80830895B7
:1003C000EF92FF920F931F93CF93DF93EC0181E0A5
:1003D000888F9B8D8C8D98131AC0E889F98980814C
:1003E00085FF15C09FB7F894EE89FF896083E8897F
:1003F000F98980818370806480839FBF81E090E071
:10040000DF91CF911F910F91FF90EF900895F62EFD
:100410000B8D10E00F5F1F4F0F731127E02E8C8D97
:100420008E110CC00FB607FCFACFE889F9898081DC
:1004300085FFF5CFCE010E94BE01F1CFEB8DEC0F11
:10044000FD2FF11DE35AFF4FF0829FB7F8940B8FF9
:10045000EA89FB8980818062CFCFCF93DF93EC0163
:10046000888D8823B9F0AA89BB89E889F9898C919C
:1004700085FD03C0808186FD0DC00FB607FCF7CF58
:100480008C9185FFF2CF808185FFEDCFCE010E9458
:10049000BE01E9CFDF91CF9108953FB7F8948091E5
:1004A000170290911802A0911902B0911A0226B574
:1004B000A89B05C02F3F19F00196A11DB11D3FBF9C
:1004C000BA2FA92F982F8827BC01CD01620F711D6B
:1004D000811D911D42E0660F771F881F991F4A9565
:1004E000D1F708958F929F92AF92BF92CF92DF92F1
:1004F000EF92FF924B015C010E944D026B017C0167
:100500000E944D026C197D098E099F09683E734057
:1005100081059105A8F321E0821A9108A108B1088C
:1005200088EEC80E83E0D81EE11CF11C81149104F2
:10053000A104B10429F7FF90EF90DF90CF90BF9016
:10054000AF909F908F900895EF92FF920F931F931B
:10055000CF93DF93EC01F12CE12C10E000E08091CF
:10056000EE029091EF02DC01ED91FC910084F185A7
:10057000E02D0995892BB1F461E070E080E090E016
:100580000E947202BFEFEB1AFB0A88EEE81683E0C6
:10059000F80628F38FEFDF91CF911F910F91FF9015
:1005A000EF9008958091EE029091EF02DC01ED91C1
:1005B000FC910284F385E02D09950930110580F541
:1005C000F801EB51FD4F0C942709EE02F6020003EF
:1005D000000300030003050307030A038F3E09F02D
:1005E000BECF188289830F5F1F4FB9CF2881398111
:1005F000282B3983288321303F4EA9F38EEFCBCFB0
:10060000FE01E00FF11F8083EECF8E83ECCF1F82BF
:100610008887E9CF2F813885282B38872F83E3CF30
:10062000FE01E00FF11F80832F813885C8010897F4
:1006300082179307C1F680E0AECF20911D02309162
:100640001E022817390771F490911B0280911C0239
:10065000981741F0E0911B02F0E0EE52FE4F8081CE
:1006600090E008958FEF9FEF08950895EF92FF9225
:100670000F931F93CF93DF93DC015C96ED90FC907A
:100680005D97E114F10479F481E090E013969C9376
:100690008E93129790E080E0DF91CF911F910F91A0
:1006A000FF90EF9008955196ED91FC9152975096DE
:1006B0008C915097982F90950FB75E962C915E97DE
:1006C000122F127021FD6095F8942081112319F1E9
:1006D000282B2083E7012197F1F728E0462F50E0EF
:1006E000308160FF1AC0382B3083E7012197F1F782
:1006F000BA0175956795215089F7112381F08081A2
:10070000892380830FBF5C968D919C910197F1F7AF
:1007100081E090E0C1CF2923DCCF3923E5CF908160
:10072000892BEFCF20911D0230911E022817390727
:1007300071F480911C0220911B0290E0805C9F4F1D
:10074000821B910960E470E00E94F108089590E036
:1007500080E0089520911D0230911E02281739076C
:10076000B9F490911B0280911C02981789F0E091D6
:100770001B02F0E0EE52FE4F808120911B0230E020
:100780002F5F3F4F2F73332720931B0290E0089574
:100790008FEF9FEF089590E080E00895FC010190B5
:1007A0000020E9F73197AF01481B590BBC018FE1DD
:1007B00092E00C944001CF93DF930E94CE03EC01B2
:1007C0008AE291E00E94CE038C0F9D1FDF91CF91B2
:1007D00008951F920F920FB60F9211242F933F93FB
:1007E0004F935F936F937F938F939F93AF93BF9339
:1007F000EF93FF938FE192E00E94BE01FF91EF9192
:10080000BF91AF919F918F917F916F915F914F9128
:100810003F912F910F900FBE0F901F9018951F9230
:100820000F920FB60F9211242F938F939F93EF93F4
:10083000FF93E0912F02F09130028081E091350228
:10084000F091360282FD1BC09081809138028F5F4B
:100850008F7320913902821741F0E0913802F0E065
:10086000E15EFD4F958F80933802FF91EF919F914C
:100870008F912F910F900FBE0F901F901895808130
:10088000F4CF1F920F920FB60F9211242F933F9324
:100890008F939F93AF93BF93809113029091140213
:1008A000A0911502B09116023091120223E0230F9D
:1008B0002D3758F50196A11DB11D2093120280938A
:1008C000130290931402A0931502B0931602809124
:1008D000170290911802A0911902B0911A02019684
:1008E000A11DB11D8093170290931802A0931902C5
:1008F000B0931A02BF91AF919F918F913F912F9129
:100900000F900FBE0F901F90189526E8230F0296A8
:10091000A11DB11DD2CF1F920F920FB60F921124BD
:100920002F933F934F935F936F937F938F939F93F7
:10093000AF93BF93EF93FF93E0911D02F0911E02DE
:10094000309749F0A685B7858585968D91FF14C0AF
:100950009C918923A1F4FF91EF91BF91AF919F9159
:100960008F917F916F915F914F913F912F910F9058
:100970000FBE0F901F9018959C91892361F7A38952
:10098000B4899C918589809589238C9386899789E0
:100990000197F1F7608D718DA685B785558538E093
:1009A00020E0CB010197F1F7822F90E09595879594
:1009B000282F4C91452309F02068315091F7868DFE
:1009C00081FD209580911C0290E001968F739927FC
:1009D00030911B02381799F0A0911C02B0E0AE5282
:1009E000BE4F2C9380931C02828D938D0197F1F75B
:1009F000A389B4898C919589892B8C93ACCF868DF2
:100A00008160868FF1CF90E0FC01E859FF4F24917F
:100A1000FC01E255FF4F3491FC01E656FF4FE49193
:100A2000EE23C9F0222339F0233001F1A8F421305C
:100A300019F1223029F1F0E0EE0FFF1FE057FF4FD0
:100A4000A591B4918FB7F894EC91611126C03095BF
:100A50003E233C938FBF08952730A9F02830C9F07A
:100A6000243049F7809180008F7D03C08091800001
:100A70008F7780938000DFCF84B58F7784BDDBCF05
:100A800084B58F7DFBCF8091B0008F778093B000CD
:100A9000D2CF8091B0008F7DF9CF3E2BDACF0F936C
:100AA0001F93CF93DF93109222021092210288EEBF
:100AB00093E0A0E0B0E08093230290932402A093FF
:100AC0002502B09326022AE031E0309320022093E1
:100AD0001F0225EC30E030932C0220932B0224ECF3
:100AE00030E030932E0220932D0220EC30E0309342
:100AF000300220932F0221EC30E030933202209319
:100B0000310222EC30E0309334022093330226ECA1
:100B100030E0309336022093350210923802109262
:100B2000390210923A0210923B021092F702109290
:100B3000F6028093F8029093F902A093FA02B09320
:100B4000FB028CE191E09093F5028093F402109205
:100B50000B0310920A0310920D0310920C031092D3
:100B60000F0310920E031092110310921003609164
:100B700012036E7F6D7F609312036695617081E052
:100B8000682783E00E94030541EB50E0FA0164917D
:100B90008DE990E0FC012491222399F030E0220FAE
:100BA000331FF901EA57FF4FA591B491F901E057BE
:100BB000FF4F259134912FB7F8943C91632B6C93A0
:100BC0002FBFFA01449140930403FC018491E82F64
:100BD000F0E0EE0FFF1FE057FF4F85919491909347
:100BE00006038093050300EB10E0F8012491CCE9A3
:100BF000D0E0FE0184918823C9F090E0880F991F0E
:100C0000FC01EA57FF4FA591B491FC01E057FF4F5B
:100C1000459154913FB7F8949C91822F80959823E9
:100C20009C93FA019081892380833FBF80911203B6
:100C300081FD04C061E082E00E94030584EF92E040
:100C400022E020930003F801049100930103FE01C8
:100C5000C491EC2FF0E0EE0FFF1FE458FF4F2591F9
:100C6000349130930303209302031092C302109235
:100C7000C2021092C5021092C40220E430E0309308
:100C8000C7022093C6021092C9021092C8024FEF09
:100C90005FEFBA014093CA025093CB026093CC023B
:100CA0007093CD023093CF022093CE0220E031EE3C
:100CB0003093D1022093D0021092D2021092D3022C
:100CC0001092D4021092D5024093D6025093D702CC
:100CD0006093D8027093D9021092F3021092F2023C
:100CE0009093F1028093F0029093EF028093EE02D2
:100CF000DF91CF911F910F910895CF93DF93CDB7DF
:100D0000DEB7CF54D1090FB6F894DEBF0FBECDBF0A
:100D1000789484B5826084BD84B5816084BD85B5D6
:100D2000826085BD85B5816085BD80916E008160E2
:100D300080936E0010928100809181008260809388
:100D4000810080918100816080938100809180008A
:100D50008160809380008091B10084608093B100B5
:100D60008091B00081608093B00080917A008460AF
:100D700080937A0080917A00826080937A008091DB
:100D80007A00816080937A0080917A0080688093F5
:100D90007A001092C100E0912F02F091300202E03F
:100DA0000083E0912B02F0912C021082E0912D0241
:100DB000F0912E028FEC808310923702E091330283
:100DC000F091340216E01083E0913102F09132028A
:100DD000808180618083E0913102F09132028081D4
:100DE00088608083E0913102F091320280818068D6
:100DF0008083E0913102F091320280818F7D808387
:100E00008DE291E00E94DB0382E591E00E94DB032A
:100E100068EE73E080E090E00E947202E091F202DE
:100E2000F091F302309731F1A089B1890C93A08938
:100E3000B1891C92A485B5851C92A685B78580E1F1
:100E40008C93108EA489B5891C93A289B3898C9147
:100E500080618C93A289B3898C9188608C93A289DC
:100E6000B3898C9180688C930288F389E02D80810E
:100E70008F7D8083E091F002F091F102309709F4C8
:100E800077C0138E128E118E108E178A168A82E406
:100E900090E0958F848F8485863108F03DC02FE0E7
:100EA00030E0378B268B20E430E0318F208F27E233
:100EB00030E0338F228F90916800883008F484C02E
:100EC00021E08E3008F420E081E001C0880F2A95EF
:100ED000EAF7892B8093680094852DE630E09830FE
:100EE00050F02BE630E09E3030F02CE630E09631CA
:100EF00010F030E020E0348B238B292F30E0983045
:100F000008F064C081E001C0880F9A95EAF7858BEC
:100F1000848D958D0197F1F7828D938D892B41F109
:100F200040911D0250911E02E417F50709F1411589
:100F3000510569F0DA0153962D913C91D9019C91AC
:100F4000DA0155968C9180958923D9018C93868DF1
:100F50008E7F868F10921C0210921B02F0931E024D
:100F6000E0931D02A389B4898C919589892B8C9378
:100F70009091D2022091D3023091D4024091D502B7
:100F800061E07FEE7A83698381E08F8365E070E0C2
:100F9000798768878FEF8B838C838D838E8383E142
:100FA0008A874B873C872D879E87CE0101960E94BA
:100FB0008D00CE0101960E94A4028823A1F088E74B
:100FC00091E00E94DB03FFCF84E083CF9E3040F4AA
:100FD0002850310981E001C0880F2A95EAF797CFA0
:100FE0002E503109F7CF8F81873049F78A858111DB
:100FF000E6CF8BE991E00E94DB0385EB91E00E9454
:10100000DB03CC24C3949FEED92E2AE0422E512C30
:10101000612C712C30E0232E30E0332E01E01FEFE5
:10102000DA82C9820F83E1E0F0E0F987E8871B8369
:101030001C831D831E830A87CE0101960E948D00AA
:10104000CE0101960E94A4028111A3C08F81873036
:1010500009F09FC08A8581119CC0DA82C9820F8302
:1010600082E090E0998788871B831C831D831E8301
:1010700092E09A870B87CE0101960E948D00CE01E7
:1010800001960E94A402811184C08F81873009F0EB
:1010900080C08A8581117DC086E0E0E0F1E0DE015C
:1010A000A65BBF4F01900D928A95E1F7DA82C98263
:1010B0000F83A6E0B0E0B987A8871B831C831D833C
:1010C0001E8386E0FE01E65BFF4FDE011A9601906B
:1010D0000D928A95E1F7CE0101960E948D00CE0116
:1010E00001960E94A402811154C08F81873009F0BB
:1010F00050C08B859C859827892798279093BD029F
:101100008093BC028D859E85982789279827909388
:10111000BF028093BE028A8581113BC0812C912C35
:10112000540183948091BC029091BD028815990569
:1011300029F519A2A50194017E01B1E2EB0EF11C83
:10114000CA01B901A30192010E940509605DF7017E
:1011500062937F01211531054105510589F73097CB
:1011600019F0CF010E94CE038AE291E00E94CE03E3
:1011700068EE73E080E090E00E947202FFEF8F1A49
:101180009F0AAF0ABF0A80E888169104A104B1043F
:1011900049F62114310409F443CF0E94AA0188239F
:1011A00009F43CCF0E94000039CF8CE191E090938C
:1011B000F5028093F40280911D0290911E02845FDB
:1011C000924071F4E0910703F091080390818091BF
:1011D000090380958923808310921E0210921D02BC
:1011E000089597FB072E16F4009407D077FD09D0D9
:1011F0000E942D0907FC05D03EF4909581959F4FE4
:101200000895709561957F4F0895A1E21A2EAA1B4B
:10121000BB1BFD010DC0AA1FBB1FEE1FFF1FA217A6
:10122000B307E407F50720F0A21BB30BE40BF50BA3
:10123000661F771F881F991F1A9469F7609570952C
:10124000809590959B01AC01BD01CF010895EE0FF3
:10125000FF1F0590F491E02D0994AA1BBB1B51E1DF
:1012600007C0AA1FBB1FA617B70710F0A61BB70B16
:10127000881F991F5A95A9F780959095BC01CD01BB
:10128000089510E0C2E6D0E004C0FE010E942709E4
:0C1290002196C336D107C9F7F894FFCFB0
:10129C001B01000000A300000000E00140016D01F3
:1012AC002D029E017C0190010000000036034001DC
:1012BC00CB0335039203AA031D030D0A0042696F89
:1012CC006D657472696320417474656E64656E63D8
:1012DC00652053797374656D2C43534520505354DA
:1012EC0055005F5F5F5F5F5F5F5F5F5F5F5F5F5F6B
:1012FC005F5F5F5F5F5F5F5F5F5F5F5F5F5F5F5FF2
:10130C005F5F5F5F5F5F0A00446964206E6F7420EB
:10131C0066696E642066696E6765727072696E7458
:10132C002073656E736F72203A2800466F756E6479
:10133C002066696E6765727072696E742073656E73
:10134C00736F72210057616974696E6720666F72E2
:10135C002076616C69642066696E6765722E2E2E2C
:02136C0000007F
:00000001FF
